:1000000009C021C020C01FC01EC01DC01CC01BC015
:100010004CC019C011241FBECFE9CDBF20E0A4E61B
:10002000B0E001C01D92A536B207E1F710E0A0E6EE
:10003000B0E0E6ECF3E002C005900D92A436B10703
:10004000D9F7ADD0BEC1DCCFCF93DF93CDB7DD27DD
:10005000C450CDBF69837A838B839C8383B7887FA9
:100060009A81892B83BF8981815086BFCC5FCDBFA8
:10007000DF91CF91089583B7887F83BF0895A895B6
:1000800098E288E10FB6F894A89581BD0FBE91BDA6
:1000900081B5806481BD789485B7877E806185BF96
:1000A00085B7806285BF8895FBCF1F920F920FB6F0
:1000B0000F9211241F932F933F934F935F936F934E
:1000C0007F938F939F93AF93BF93CF93DF93EF93E0
:1000D000FF9381B5806481BDC39A8FE697E1019754
:1000E000F1F700C00000809164008F5F809364008E
:1000F000C39880916400823E08F43DC0C39A0FB655
:10010000F894A89581B5886181BD11BC0FBE8FB5EB
:1001100080648FBD13E0C0E2D3E0EDD0BE017AD0A1
:10012000BC01645D7E4F072E000C880B990B8CDFA1
:100130009FEF22E587E0915020408040E1F700C02A
:10014000000099DF115049F78FB58F7B8FBDC098A4
:10015000C3981092640098E288E10FB6F894A895CD
:1001600081BD0FBE91BD789481B5806481BD85B796
:10017000806285BF8895FF91EF91DF91CF91BF910C
:10018000AF919F918F917F916F915F914F913F912F
:100190002F911F910F900FBE0F901F90189589E01F
:1001A00087BB18BA8FB582608FBD8FB580648FBD55
:1001B00062DF2FE38EE795E0215080409040E1F729
:1001C00000C00000C39A8FB580648FBD0F2EFCE283
:1001D000CF2EDD24D394E12CF12CF02DC701B601F4
:1001E00033DF87EB9BE00197F1F700C000009FEF42
:1001F000C91AD90AE90AF90A2CE4C21624E0D2067F
:10020000E104F10459F737DF8FB58F7B8FBDC098BC
:10021000C39835DF97FB072E16F4009406D077FDC0
:1002200008D00BD007FC05D03EF4909581959F4FE8
:100230000895709561957F4F0895AA1BBB1B51E1EE
:1002400007C0AA1FBB1FA617B70710F0A61BB70B46
:10025000881F991F5A95A9F780959095BC01CD01EB
:1002600008958F929F92AF92BF92CF92DF92EF92BA
:10027000FF92CF93DF93EC01688179818A819B8122
:10028000611571058105910521F464E279ED8BE535
:1002900097E02DE133EF41E050E055D049015A019C
:1002A00027EA31E440E050E035D06B017C012CEED0
:1002B00034EF4FEF5FEFC501B4012CD0DC01CB016F
:1002C0008C0D9D1DAE1DBF1DB7FF03C00197A10979
:1002D000B04888839983AA83BB839F77DF91CF91AE
:1002E000FF90EF90DF90CF90BF90AF909F908F9056
:1002F0000895B7DF089580E690E0B3DF0895A0E0A9
:10030000B0E08093600090936100A0936200B0938E
:1003100063000895EE27FF27AA27BB2708C0A20F76
:10032000B31FE41FF51F220F331F441F551F96955F
:1003300087957795679598F37040A9F7009799F797
:10034000BD01CF010895052E97FB16F400940FD040
:1003500057FD05D014D007FC02D046F408C05095D4
:100360004095309521953F4F4F4F5F4F08959095A1
:100370008095709561957F4F8F4F9F4F0895A1E2B3
:100380001A2EAA1BBB1BFD010DC0AA1FBB1FEE1F0F
:10039000FF1FA217B307E407F50720F0A21BB30B5A
:1003A000E40BF50B661F771F881F991F1A9469F7D6
:1003B00060957095809590959B01AC01BD01CF0132
:0603C0000895F894FFCF40
:0403C6000100000032
:00000001FF
